{
  "address": "0x6C591f4a86730902860ad4295addf3e41100Fa3D",
  "abi": [
    {
      "inputs": [
        {
          "internalType": "address",
          "name": "_cUSD",
          "type": "address"
        }
      ],
      "stateMutability": "nonpayable",
      "type": "constructor"
    },
    {
      "inputs": [],
      "name": "TransferFromFailed",
      "type": "error"
    },
    {
      "inputs": [],
      "name": "ACCEPTED_HASH",
      "outputs": [
        {
          "internalType": "bytes32",
          "name": "",
          "type": "bytes32"
        }
      ],
      "stateMutability": "view",
      "type": "function"
    },
    {
      "inputs": [],
      "name": "ADVANCE_HASH",
      "outputs": [
        {
          "internalType": "bytes32",
          "name": "",
          "type": "bytes32"
        }
      ],
      "stateMutability": "view",
      "type": "function"
    },
    {
      "inputs": [],
      "name": "LOAN_HASH",
      "outputs": [
        {
          "internalType": "bytes32",
          "name": "",
          "type": "bytes32"
        }
      ],
      "stateMutability": "view",
      "type": "function"
    },
    {
      "inputs": [],
      "name": "REJECTED_HASH",
      "outputs": [
        {
          "internalType": "bytes32",
          "name": "",
          "type": "bytes32"
        }
      ],
      "stateMutability": "view",
      "type": "function"
    },
    {
      "inputs": [
        {
          "internalType": "address",
          "name": "employee",
          "type": "address"
        },
        {
          "internalType": "uint256",
          "name": "payment",
          "type": "uint256"
        },
        {
          "internalType": "uint8",
          "name": "saveForMeRate",
          "type": "uint8"
        }
      ],
      "name": "addEmployee",
      "outputs": [
        {
          "internalType": "bool",
          "name": "done",
          "type": "bool"
        }
      ],
      "stateMutability": "nonpayable",
      "type": "function"
    },
    {
      "inputs": [
        {
          "internalType": "uint8",
          "name": "interestRate",
          "type": "uint8"
        },
        {
          "internalType": "uint8",
          "name": "amortizationRate",
          "type": "uint8"
        },
        {
          "internalType": "string",
          "name": "acceptOrRejectStr",
          "type": "string"
        }
      ],
      "name": "approveLoanOrAdvanceRequest",
      "outputs": [
        {
          "internalType": "bool",
          "name": "",
          "type": "bool"
        }
      ],
      "stateMutability": "nonpayable",
      "type": "function"
    },
    {
      "inputs": [],
      "name": "cUSD",
      "outputs": [
        {
          "internalType": "address",
          "name": "",
          "type": "address"
        }
      ],
      "stateMutability": "view",
      "type": "function"
    },
    {
      "inputs": [],
      "name": "confirmPayment",
      "outputs": [
        {
          "internalType": "bool",
          "name": "",
          "type": "bool"
        }
      ],
      "stateMutability": "nonpayable",
      "type": "function"
    },
    {
      "inputs": [
        {
          "internalType": "uint256",
          "name": "employeeId",
          "type": "uint256"
        },
        {
          "internalType": "bool",
          "name": "value",
          "type": "bool"
        }
      ],
      "name": "disableOrEnableEmployee",
      "outputs": [
        {
          "internalType": "bool",
          "name": "",
          "type": "bool"
        }
      ],
      "stateMutability": "nonpayable",
      "type": "function"
    },
    {
      "inputs": [],
      "name": "getEmployees",
      "outputs": [
        {
          "components": [
            {
              "internalType": "address",
              "name": "identifier",
              "type": "address"
            },
            {
              "internalType": "address",
              "name": "employer",
              "type": "address"
            },
            {
              "internalType": "uint256",
              "name": "workId",
              "type": "uint256"
            },
            {
              "internalType": "bool",
              "name": "active",
              "type": "bool"
            },
            {
              "internalType": "bool",
              "name": "saveForMe",
              "type": "bool"
            },
            {
              "internalType": "uint256",
              "name": "pay",
              "type": "uint256"
            },
            {
              "internalType": "uint8",
              "name": "saveForMeRate",
              "type": "uint8"
            },
            {
              "internalType": "uint8",
              "name": "amortizationRate",
              "type": "uint8"
            },
            {
              "components": [
                {
                  "internalType": "uint256",
                  "name": "amount",
                  "type": "uint256"
                },
                {
                  "internalType": "uint256",
                  "name": "amortizationAmt",
                  "type": "uint256"
                },
                {
                  "internalType": "enum ILoanAndSalaryAdvance.LoanStatus",
                  "name": "status",
                  "type": "uint8"
                }
              ],
              "internalType": "struct ILoanAndSalaryAdvance.AdvanceRequest",
              "name": "advanceReq",
              "type": "tuple"
            },
            {
              "components": [
                {
                  "internalType": "uint256",
                  "name": "amount",
                  "type": "uint256"
                },
                {
                  "internalType": "uint256",
                  "name": "interest",
                  "type": "uint256"
                },
                {
                  "internalType": "uint256",
                  "name": "amortizationAmt",
                  "type": "uint256"
                },
                {
                  "internalType": "enum ILoanAndSalaryAdvance.LoanStatus",
                  "name": "status",
                  "type": "uint8"
                }
              ],
              "internalType": "struct ILoanAndSalaryAdvance.LoanRequest",
              "name": "loanReq",
              "type": "tuple"
            }
          ],
          "internalType": "struct ILoanAndSalaryAdvance.EmployeePayload[]",
          "name": "_returnData",
          "type": "tuple[]"
        }
      ],
      "stateMutability": "view",
      "type": "function"
    },
    {
      "inputs": [
        {
          "internalType": "uint256",
          "name": "employeeId",
          "type": "uint256"
        },
        {
          "internalType": "uint8",
          "name": "txType",
          "type": "uint8"
        }
      ],
      "name": "preparePaymentRequest",
      "outputs": [
        {
          "internalType": "bool",
          "name": "",
          "type": "bool"
        }
      ],
      "stateMutability": "nonpayable",
      "type": "function"
    },
    {
      "inputs": [
        {
          "internalType": "address",
          "name": "employerAddr",
          "type": "address"
        },
        {
          "internalType": "uint256",
          "name": "employeeId",
          "type": "uint256"
        },
        {
          "internalType": "uint24",
          "name": "amount",
          "type": "uint24"
        },
        {
          "internalType": "string",
          "name": "loanOrAdvanceStr",
          "type": "string"
        }
      ],
      "name": "requestAdvanceOrLoan",
      "outputs": [
        {
          "internalType": "bool",
          "name": "",
          "type": "bool"
        }
      ],
      "stateMutability": "nonpayable",
      "type": "function"
    },
    {
      "inputs": [
        {
          "internalType": "address",
          "name": "employerAddr",
          "type": "address"
        },
        {
          "internalType": "uint256",
          "name": "employeeId",
          "type": "uint256"
        },
        {
          "internalType": "bool",
          "name": "value",
          "type": "bool"
        }
      ],
      "name": "save4Me",
      "outputs": [
        {
          "internalType": "bool",
          "name": "",
          "type": "bool"
        }
      ],
      "stateMutability": "nonpayable",
      "type": "function"
    },
    {
      "stateMutability": "payable",
      "type": "receive"
    }
  ],
  "transactionHash": "0x4ba5ddd8ea07aeb9bfc993244fc7008edad6f1ee031915452ce9d0333ea330d1",
  "args": [
    "0x874069Fa1Eb16D44d622F2e0Ca25eeA172369bC1"
  ],
  "numDeployments": 4,
  "solcInputHash": "8e9fd8818f32437cd1446101a529b3aa",
  "bytecode": "0x6101206040523480156200001257600080fd5b5060405162002eff38038062002eff8339810160408190526200003591620001bc565b600160a060020a0381166200004957600080fd5b600160a060020a03811660805260408051808201909152600481527f4c4f414e0000000000000000000000000000000000000000000000000000000060208201526200009e906401000000006200018a810204565b60a05260408051808201909152600781527f414456414e4345000000000000000000000000000000000000000000000000006020820152620000e9906401000000006200018a810204565b60c05260408051808201909152600881527f4143434550544544000000000000000000000000000000000000000000000000602082015262000134906401000000006200018a810204565b60e05260408051808201909152600881527f52454a454354454400000000000000000000000000000000000000000000000060208201526200017f906401000000006200018a810204565b61010052506200023e565b6000816040516020016200019f9190620001ee565b604051602081830303815290604052805190602001209050919050565b600060208284031215620001cf57600080fd5b8151600160a060020a0381168114620001e757600080fd5b9392505050565b600060208083528351808285015260005b818110156200021d57858101830151858201604001528201620001ff565b506000604082860101526040601f19601f8301168501019250505092915050565b60805160a05160c05160e05161010051612c4b620002b4600039600061025e0152600081816102e60152611f7501526000818161017701526116b60152600081816102b2015261180c015260008181610104015281816106d201528181611199015281816115fc01526120090152612c4b6000f3fe6080604052600436106100e3576000357c0100000000000000000000000000000000000000000000000000000000900480637bc9ad0f1161009c578063b2bf0bab11610076578063b2bf0bab14610280578063c5a5955e146102a0578063ddfa4324146102d4578063ea08902a1461030857600080fd5b80637bc9ad0f1461020c57806380c231eb1461022c578063883281c41461024c57600080fd5b80631fccf672146100f25780634abefa36146101435780635fdc32d11461016557806362ef1f81146101a757806371a0a6fb146101cc578063759fe169146101ec57600080fd5b366100ed57600080fd5b600080fd5b3480156100fe57600080fd5b506101267f000000000000000000000000000000000000000000000000000000000000000081565b604051600160a060020a0390911681526020015b60405180910390f35b34801561014f57600080fd5b50610158610328565b60405161013a919061262a565b34801561017157600080fd5b506101997f000000000000000000000000000000000000000000000000000000000000000081565b60405190815260200161013a565b3480156101b357600080fd5b506101bc6104b7565b604051901515815260200161013a565b3480156101d857600080fd5b506101bc6101e7366004612728565b6107fe565b3480156101f857600080fd5b506101bc610207366004612776565b610a95565b34801561021857600080fd5b506101bc6102273660046127b6565b610d87565b34801561023857600080fd5b506101bc61024736600461288c565b6113d4565b34801561025857600080fd5b506101997f000000000000000000000000000000000000000000000000000000000000000081565b34801561028c57600080fd5b506101bc61029b3660046128fe565b6119a8565b3480156102ac57600080fd5b506101997f000000000000000000000000000000000000000000000000000000000000000081565b3480156102e057600080fd5b506101997f000000000000000000000000000000000000000000000000000000000000000081565b34801561031457600080fd5b506101bc61032336600461292a565b611c82565b60606002805480602002602001604051908101604052809291908181526020016000905b828210156104ae5760008481526020908190206040805161014081018252600d86029092018054600160a060020a0390811684526001820154168385015260028101548383015260038082015460ff808216151560608088019190915261010092839004821615156080880152600485015460a0880152600585015480831660c0890152839004821660e088015285519081018652600685018054825260078601549882019890985260088501549697949692880195909493908501929091169081111561041c5761041c61259d565b600381111561042d5761042d61259d565b815250508152602001600982016040518060800160405290816000820154815260200160018201548152602001600282015481526020016003820160009054906101000a900460ff1660038111156104875761048761259d565b60038111156104985761049861259d565b905250905250815260019091019060200161034c565b50505050905090565b33600090815260016020818152604080842081516101c0810183528154600160a060020a0390811660808301908152958301541660a0820152600282015460c082015260038083015460ff808216151560e085015261010091829004811615158285015260048501546101208501526005850154808216610140860152919091048116610160840152845160608101865260068501805482526007860154978201979097526008850154899894979596889688956101808901959193928501929091169081111561058a5761058a61259d565b600381111561059b5761059b61259d565b815250508152602001600982016040518060800160405290816000820154815260200160018201548152602001600282015481526020016003820160009054906101000a900460ff1660038111156105f5576105f561259d565b60038111156106065761060661259d565b9052509052508152600d82015460209091019060ff16600281111561062d5761062d61259d565b600281111561063e5761063e61259d565b8152600e8201546020820152600f9091015467ffffffffffffffff1660409182015281519081015191925060009161067591612378565b82516080015190915061079a57815160a00151604083015161069791906129a5565b8251516040517f70a08231000000000000000000000000000000000000000000000000000000008152600160a060020a0391821660048201527f0000000000000000000000000000000000000000000000000000000000000000909116906370a0823190602401602060405180830381865afa15801561071b573d6000803e3d6000fd5b505050506040513d601f19601f8201168201806040525081019061073f91906129be565b10156107955760405160e560020a62461bcd02815260206004820152601160248201527f42616c616e63657320616e6f6d616c6c7900000000000000000000000000000060448201526064015b60405180910390fd5b6107f5565b815160c001516064906107b09060ff16836129d7565b6107ba91906129ee565b6107c490826129a5565b6002836000015160400151815481106107df576107df612a13565b90600052602060002090600d0201600401819055505b60019250505090565b6000828460028054905082106108295760405160e560020a62461bcd02815260040161078c90612a2c565b80600160a060020a03166002838154811061084657610846612a13565b600091825260209091206001600d909202010154600160a060020a0316146108835760405160e560020a62461bcd02815260040161078c90612a63565b600033905060006002878154811061089d5761089d612a13565b60009182526020918290206040805161014081018252600d9093029091018054600160a060020a0390811684526001820154168385015260028101548383015260038082015460ff808216151560608088019190915261010092839004821615156080880152600485015460a0880152600585015480831660c0890152839004821660e08801528551908101865260068501805482526007860154988201989098526008850154969794969288019590949390850192909116908111156109665761096661259d565b60038111156109775761097761259d565b815250508152602001600982016040518060800160405290816000820154815260200160018201548152602001600282015481526020016003820160009054906101000a900460ff1660038111156109d1576109d161259d565b60038111156109e2576109e261259d565b9052509052508051909150600160a060020a03838116911614610a4a5760405160e560020a62461bcd02815260206004820152601160248201527f556e417574686f72697a65642063616c6c000000000000000000000000000000604482015260640161078c565b8560028881548110610a5e57610a5e612a13565b90600052602060002090600d020160030160016101000a81548160ff02191690831515021790555060019450505050509392505050565b600033600160a060020a038516610af15760405160e560020a62461bcd02815260206004820152601260248201527f41646472657373657320697320656d7074790000000000000000000000000000604482015260640161078c565b600160a060020a038082166000908152602081815260408083209389168352929052205460ff16610d3457600160a060020a03818116600081815260208181526040808320948a16808452948252808320805460ff19166001908117909155815161014081018352958652858301949094526002805486830152606080870195909552608080870185905260a087018b905260ff8a1660c088015260e087018590528251808701845285815280850186905280840186905261010088015282519081018352848152928301849052908201839052939261012084019290820152905281546001808201845560009384526020938490208351600d90930201805473ffffffffffffffffffffffffffffffffffffffff19908116600160a060020a039485161782558486015182840180549092169416939093179092556040808401516002840155606084015160038085018054608088015161ffff1991821694151561ff0019169490941761010094151585021790915560a0870151600487015560c087015160058701805460e08a015160ff93841691909416179190921684021790559085015180516006860190815596810151600786015591820151600885018054969795969395949193909260ff1990911691908490811115610cd957610cd961259d565b021790555050506101208201518051600983019081556020820151600a8401556040820151600b8401556060820151600c8401805460ff19166001836003811115610d2657610d2661259d565b021790555050505050610d7f565b60405160e560020a62461bcd02815260206004820152600e60248201527f456d706c6f796565206578697374000000000000000000000000000000000000604482015260640161078c565b509392505050565b600082336002548210610daf5760405160e560020a62461bcd02815260040161078c90612a2c565b80600160a060020a031660028381548110610dcc57610dcc612a13565b600091825260209091206001600d909202010154600160a060020a031614610e095760405160e560020a62461bcd02815260040161078c90612a63565b60038460ff1610610e5f5760405160e560020a62461bcd02815260206004820152601060248201527f496e76616c69642074786e207479706500000000000000000000000000000000604482015260640161078c565b600060028681548110610e7457610e74612a13565b60009182526020918290206040805161014081018252600d9093029091018054600160a060020a0390811684526001820154168385015260028101548383015260038082015460ff808216151560608088019190915261010092839004821615156080880152600485015460a0880152600585015480831660c0890152839004821660e0880152855190810186526006850180548252600786015498820198909852600885015496979496928801959094939085019290911690811115610f3d57610f3d61259d565b6003811115610f4e57610f4e61259d565b815250508152602001600982016040518060800160405290816000820154815260200160018201548152602001600282015481526020016003820160009054906101000a900460ff166003811115610fa857610fa861259d565b6003811115610fb957610fb961259d565b81525050815250509050604051806080016040528060028881548110610fe157610fe1612a13565b60009182526020918290206040805161014081018252600d9093029091018054600160a060020a0390811684526001820154168385015260028101548383015260038082015460ff808216151560608088019190915261010092839004821615156080880152600485015460a0880152600585015480831660c0890152839004821660e08801528551908101865260068501805482526007860154988201989098526008850154969794969288019590949390850192909116908111156110aa576110aa61259d565b60038111156110bb576110bb61259d565b815250508152602001600982016040518060800160405290816000820154815260200160018201548152602001600282015481526020016003820160009054906101000a900460ff1660038111156111155761111561259d565b60038111156111265761112661259d565b905250905250815260200160ff871660028111156111465761114661259d565b60028111156111575761115761259d565b815282516040517f70a08231000000000000000000000000000000000000000000000000000000008152600160a060020a0391821660048201526020909201917f0000000000000000000000000000000000000000000000000000000000000000909116906370a0823190602401602060405180830381865afa1580156111e2573d6000803e3d6000fd5b505050506040513d601f19601f8201168201806040525081019061120691906129be565b815267ffffffffffffffff4216602091820152336000908152600180835260409182902084518051825473ffffffffffffffffffffffffffffffffffffffff19908116600160a060020a039283161784558287015184860180549092169216919091179055808401516002830155606081015160038084018054608085015161ffff1991821694151561ff0019169490941761010094151585021790915560a0840151600486015560c084015160058601805460e087015160ff9384169190941617919092168402179055908201518051600685019081559681015160078501559485015160088401805494979396889690959293919260ff19169184908111156113135761131361259d565b021790555050506101208201518051600983019081556020820151600a8401556040820151600b8401556060820151600c8401805460ff191660018360038111156113605761136061259d565b02179055505050506020830151600d830180549192509060ff1916600183600281111561138f5761138f61259d565b02179055506040820151600e820155606090910151600f909101805467ffffffffffffffff191667ffffffffffffffff90921691909117905550600195945050505050565b6000838560028054905082106113ff5760405160e560020a62461bcd02815260040161078c90612a2c565b80600160a060020a03166002838154811061141c5761141c612a13565b600091825260209091206001600d909202010154600160a060020a0316146114595760405160e560020a62461bcd02815260040161078c90612a63565b60006002878154811061146e5761146e612a13565b60009182526020918290206040805161014081018252600d9093029091018054600160a060020a0390811684526001820154168385015260028101548383015260038082015460ff808216151560608088019190915261010092839004821615156080880152600485015460a0880152600585015480831660c0890152839004821660e08801528551908101865260068501805482526007860154988201989098526008850154969794969288019590949390850192909116908111156115375761153761259d565b60038111156115485761154861259d565b815250508152602001600982016040518060800160405290816000820154815260200160018201548152602001600282015481526020016003820160009054906101000a900460ff1660038111156115a2576115a261259d565b60038111156115b3576115b361259d565b8152505081525050905060006040518060400160405280601881526020017f596f7520686176652070656e64696e672072657175657374000000000000000081525090506000807f0000000000000000000000000000000000000000000000000000000000000000600160a060020a031663313ce5676040518163ffffffff167c0100000000000000000000000000000000000000000000000000000000028152600401602060405180830381865afa158015611674573d6000803e3d6000fd5b505050506040513d601f19601f820116820180604052508101906116989190612a9a565b6116a390600a612ba5565b6116b29062ffffff8b166129d7565b90507f00000000000000000000000000000000000000000000000000000000000000006116de8961256d565b0361180a5760008461010001516040015160038111156117005761170061259d565b1480611726575060038461010001516040015160038111156117245761172461259d565b145b91508360a0015181111561177f5760405160e560020a62461bcd02815260206004820152601c60248201527f416476616e63652063616e6e6f74206578636565642053616c61727900000000604482015260640161078c565b6040805160608101825282815260006020820152908101600181525060028b815481106117ae576117ae612a13565b90600052602060002090600d0201600601600082015181600001556020820151816001015560408201518160020160006101000a81548160ff021916908360038111156117fd576117fd61259d565b0217905550905050611974565b7f00000000000000000000000000000000000000000000000000000000000000006118348961256d565b036119575760008461012001516060015160038111156118565761185661259d565b148061187c5750600384610120015160600151600381111561187a5761187a61259d565b145b91506040518060400160405280601d81526020017f596f7520686176652070656e64696e67206c6f616e2072657175657374000000815250925060405180608001604052808281526020016000815260200160008152602001600160038111156118e8576118e861259d565b81525060028b815481106118fe576118fe612a13565b90600052602060002090600d020160090160008201518160000155602082015181600101556040820151816002015560608201518160030160006101000a81548160ff021916908360038111156117fd576117fd61259d565b8760405160e560020a62461bcd02815260040161078c9190612bb4565b82826119965760405160e560020a62461bcd02815260040161078c9190612bb4565b5060019b9a5050505050505050505050565b6000823360025482106119d05760405160e560020a62461bcd02815260040161078c90612a2c565b80600160a060020a0316600283815481106119ed576119ed612a13565b600091825260209091206001600d909202010154600160a060020a031614611a2a5760405160e560020a62461bcd02815260040161078c90612a63565b600060028681548110611a3f57611a3f612a13565b60009182526020918290206040805161014081018252600d9093029091018054600160a060020a0390811684526001820154168385015260028101548383015260038082015460ff808216151560608088019190915261010092839004821615156080880152600485015460a0880152600585015480831660c0890152839004821660e0880152855190810186526006850180548252600786015498820198909852600885015496979496928801959094939085019290911690811115611b0857611b0861259d565b6003811115611b1957611b1961259d565b815250508152602001600982016040518060800160405290816000820154815260200160018201548152602001600282015481526020016003820160009054906101000a900460ff166003811115611b7357611b7361259d565b6003811115611b8457611b8461259d565b90525090525090508415611bec57806060015115611be75760405160e560020a62461bcd02815260206004820152600760248201527f456e61626c656400000000000000000000000000000000000000000000000000604482015260640161078c565b611c40565b8060600151611c405760405160e560020a62461bcd02815260206004820152600860248201527f44697361626c6564000000000000000000000000000000000000000000000000604482015260640161078c565b8460028781548110611c5457611c54612a13565b60009182526020909120600d90910201600301805460ff191691151591909117905550600195945050505050565b33600090815260016020818152604080842081516101c0810183528154600160a060020a0390811660808301908152958301541660a0820152600282015460c082015260038083015460ff808216151560e0850152610100918290048116151582850152600485015461012085015260058501548082166101408601529190910481166101608401528451606081018652600685018054825260078601549782019790975260088501548998949795968896889561018089019591939285019290911690811115611d5557611d5561259d565b6003811115611d6657611d6661259d565b815250508152602001600982016040518060800160405290816000820154815260200160018201548152602001600282015481526020016003820160009054906101000a900460ff166003811115611dc057611dc061259d565b6003811115611dd157611dd161259d565b9052509052508152600d82015460209091019060ff166002811115611df857611df861259d565b6002811115611e0957611e0961259d565b8152600e8201546020820152600f9091015467ffffffffffffffff1660409091015280516101200151519091501515600182602001516002811115611e5057611e5061259d565b14611ea05760405160e560020a62461bcd02815260206004820152601360248201527f496e76616c6964205472616e73616374696f6e00000000000000000000000000604482015260640161078c565b80611ec957600182516101000151604001516003811115611ec357611ec361259d565b14611ee9565b600182516101200151606001516003811115611ee757611ee761259d565b145b611f385760405160e560020a62461bcd02815260206004820152600f60248201527f496e76616c696420726571756573740000000000000000000000000000000000604482015260640161078c565b8151610120015151600090611f4e576000611f71565b8251610120015151606490611f679060ff8a16906129d7565b611f7191906129ee565b90507f0000000000000000000000000000000000000000000000000000000000000000611f9d8661256d565b036122cf57600082611fb6578351610100015151611fbf565b83516101200151515b8460400151611fce91906129a5565b8451516040517f70a08231000000000000000000000000000000000000000000000000000000008152600160a060020a0391821660048201527f0000000000000000000000000000000000000000000000000000000000000000909116906370a0823190602401602060405180830381865afa158015612052573d6000803e3d6000fd5b505050506040513d601f19601f8201168201806040525081019061207691906129be565b10156120c75760405160e560020a62461bcd02815260206004820152601160248201527f42616c616e63657320616e6f6d616c6c79000000000000000000000000000000604482015260640161078c565b82156121b757835161012001515160649060ff8916906120e89085906129a5565b6120f291906129d7565b6120fc91906129ee565b9050604051806080016040528083866000015161012001516000015161212291906129a5565b815260208101849052604080820184905260026060909201829052865101518154811061215157612151612a13565b90600052602060002090600d020160090160008201518160000155602082015181600101556040820151816002015560608201518160030160006101000a81548160ff021916908360038111156121aa576121aa61259d565b0217905550905050612271565b83516101000151516064906121d09060ff8a16906129d7565b6121da91906129ee565b6040805160608101825286516101000151518152602081018390529192508101600281525060028560000151604001518154811061221a5761221a612a13565b90600052602060002090600d0201600601600082015181600001556020820151816001015560408201518160020160006101000a81548160ff021916908360038111156122695761226961259d565b021790555050505b835160a001518111156122c95760405160e560020a62461bcd02815260206004820152601860248201527f416d6f7274697a6174696f6e2065786365656473207061790000000000000000604482015260640161078c565b5061236b565b8161231e576002836000015160400151815481106122ef576122ef612a13565b6000918252602082206006600d909202019081018290556007810191909155600801805460ff1916905561236b565b60028360000151604001518154811061233957612339612a13565b6000918252602082206009600d90920201908101829055600a8101829055600b810191909155600c01805460ff191690555b5060019695505050505050565b61012081015151600090801561247057808361012001516040015111156123be576123a38180612c02565b905080818460a001516123b69190612c02565b9250826123f2565b610120830151604001516123d29082612c02565b905080836101200151604001518460a001516123ee9190612c02565b9250825b5050806002858154811061240857612408612a13565b90600052602060002090600d020160090160000181905550806000036124705760036002858154811061243d5761243d612a13565b60009182526020909120600c600d9092020101805460ff1916600183600381111561246a5761246a61259d565b02179055505b5061010082015151801561256657808361010001516020015111156124b4576124998180612c02565b905080818460a001516124ac9190612c02565b9250826124e8565b610100830151602001516124c89082612c02565b905080836101000151602001518460a001516124e49190612c02565b9250825b505080600285815481106124fe576124fe612a13565b90600052602060002090600d020160060160000181905550806000036125665760036002858154811061253357612533612a13565b600091825260209091206008600d9092020101805460ff191660018360038111156125605761256061259d565b02179055505b5092915050565b6000816040516020016125809190612bb4565b604051602081830303815290604052805190602001209050919050565b60e060020a634e487b7102600052602160045260246000fd5b600481106125d75760e060020a634e487b7102600052602160045260246000fd5b9052565b805182526020810151602083015260408101516125fb60408401826125b6565b505050565b80518252602081015160208301526040810151604083015260608101516125fb60608401826125b6565b602080825282518282018190526000919060409081850190868401855b828110156126ef5781518051600160a060020a039081168652878201511687860152858101518686015260608082015115159086015260808082015115159086015260a0808201519086015260c08082015160ff9081169187019190915260e08083015190911690860152610100808201516126c5828801826125db565b505061012001516126da610160860182612600565b506101e0939093019290850190600101612647565b5091979650505050505050565b8035600160a060020a038116811461271357600080fd5b919050565b8035801515811461271357600080fd5b60008060006060848603121561273d57600080fd5b612746846126fc565b92506020840135915061275b60408501612718565b90509250925092565b60ff8116811461277357600080fd5b50565b60008060006060848603121561278b57600080fd5b612794846126fc565b92506020840135915060408401356127ab81612764565b809150509250925092565b600080604083850312156127c957600080fd5b8235915060208301356127db81612764565b809150509250929050565b60e060020a634e487b7102600052604160045260246000fd5b600082601f83011261281057600080fd5b813567ffffffffffffffff8082111561282b5761282b6127e6565b604051601f8301601f19908116603f01168101908282118183101715612853576128536127e6565b8160405283815286602085880101111561286c57600080fd5b836020870160208301376000602085830101528094505050505092915050565b600080600080608085870312156128a257600080fd5b6128ab856126fc565b935060208501359250604085013562ffffff811681146128ca57600080fd5b9150606085013567ffffffffffffffff8111156128e657600080fd5b6128f2878288016127ff565b91505092959194509250565b6000806040838503121561291157600080fd5b8235915061292160208401612718565b90509250929050565b60008060006060848603121561293f57600080fd5b833561294a81612764565b9250602084013561295a81612764565b9150604084013567ffffffffffffffff81111561297657600080fd5b612982868287016127ff565b9150509250925092565b60e060020a634e487b7102600052601160045260246000fd5b808201808211156129b8576129b861298c565b92915050565b6000602082840312156129d057600080fd5b5051919050565b80820281158282048414176129b8576129b861298c565b600082612a0e5760e060020a634e487b7102600052601260045260246000fd5b500490565b60e060020a634e487b7102600052603260045260246000fd5b60208082526012908201527f496e76616c696420656d706c6f79656549640000000000000000000000000000604082015260600190565b6020808252601d908201527f4e6f7420616e20656d706c6f796572206f6620656d706c6f7965654964000000604082015260600190565b600060208284031215612aac57600080fd5b8151612ab781612764565b9392505050565b600181815b80851115612afb578160001904821115612adf57612adf61298c565b80851615612aec57918102915b60029094049390800290612ac3565b509250929050565b600082612b12575060016129b8565b81612b1f575060006129b8565b8160018114612b355760028114612b3f57612b5c565b60019150506129b8565b60ff841115612b5057612b5061298c565b8360020a9150506129b8565b5060208310610133831016604e8410600b8410161715612b7f575081810a6129b8565b612b898383612abe565b8060001904821115612b9d57612b9d61298c565b029392505050565b6000612ab760ff841683612b03565b600060208083528351808285015260005b81811015612be157858101830151858201604001528201612bc5565b506000604082860101526040601f19601f8301168501019250505092915050565b818103818111156129b8576129b861298c56fea264697066735822122043114e428eb2c9bd7897ef23b71fb8978daf7f5f431813035129e17e765268ad64736f6c63430008140033",
  "devdoc": {
    "kind": "dev",
    "methods": {
      "confirmPayment()": {
        "details": "Employers pay employees Employees addition are not accepted at this point.  Prior to this call, employer should use { disableOrEnableEmployee } to filter ones that should not be paid  Note: Employer should send an ammount correspond to cUSD balance to cover the expected payment range."
      }
    },
    "version": 1
  },
  "userdoc": {
    "kind": "user",
    "methods": {},
    "version": 1
  },
  "storageLayout": {
    "storage": [
      {
        "astId": 154,
        "contract": "contracts/loanAndSalaryAdvance/LoanAndSalaryAdvance.sol:LoanAndSalaryAdvance",
        "label": "isAdded",
        "offset": 0,
        "slot": "0",
        "type": "t_mapping(t_address,t_mapping(t_address,t_bool))"
      },
      {
        "astId": 159,
        "contract": "contracts/loanAndSalaryAdvance/LoanAndSalaryAdvance.sol:LoanAndSalaryAdvance",
        "label": "pendingPayments",
        "offset": 0,
        "slot": "1",
        "type": "t_mapping(t_address,t_struct(PendingPayment)94_storage)"
      },
      {
        "astId": 163,
        "contract": "contracts/loanAndSalaryAdvance/LoanAndSalaryAdvance.sol:LoanAndSalaryAdvance",
        "label": "employees",
        "offset": 0,
        "slot": "2",
        "type": "t_array(t_struct(EmployeePayload)65_storage)dyn_storage"
      }
    ],
    "types": {
      "t_address": {
        "encoding": "inplace",
        "label": "address",
        "numberOfBytes": "20"
      },
      "t_array(t_struct(EmployeePayload)65_storage)dyn_storage": {
        "base": "t_struct(EmployeePayload)65_storage",
        "encoding": "dynamic_array",
        "label": "struct ILoanAndSalaryAdvance.EmployeePayload[]",
        "numberOfBytes": "32"
      },
      "t_bool": {
        "encoding": "inplace",
        "label": "bool",
        "numberOfBytes": "1"
      },
      "t_enum(LoanStatus)42": {
        "encoding": "inplace",
        "label": "enum ILoanAndSalaryAdvance.LoanStatus",
        "numberOfBytes": "1"
      },
      "t_enum(TxType)37": {
        "encoding": "inplace",
        "label": "enum ILoanAndSalaryAdvance.TxType",
        "numberOfBytes": "1"
      },
      "t_mapping(t_address,t_bool)": {
        "encoding": "mapping",
        "key": "t_address",
        "label": "mapping(address => bool)",
        "numberOfBytes": "32",
        "value": "t_bool"
      },
      "t_mapping(t_address,t_mapping(t_address,t_bool))": {
        "encoding": "mapping",
        "key": "t_address",
        "label": "mapping(address => mapping(address => bool))",
        "numberOfBytes": "32",
        "value": "t_mapping(t_address,t_bool)"
      },
      "t_mapping(t_address,t_struct(PendingPayment)94_storage)": {
        "encoding": "mapping",
        "key": "t_address",
        "label": "mapping(address => struct ILoanAndSalaryAdvance.PendingPayment)",
        "numberOfBytes": "32",
        "value": "t_struct(PendingPayment)94_storage"
      },
      "t_struct(AdvanceRequest)73_storage": {
        "encoding": "inplace",
        "label": "struct ILoanAndSalaryAdvance.AdvanceRequest",
        "members": [
          {
            "astId": 67,
            "contract": "contracts/loanAndSalaryAdvance/LoanAndSalaryAdvance.sol:LoanAndSalaryAdvance",
            "label": "amount",
            "offset": 0,
            "slot": "0",
            "type": "t_uint256"
          },
          {
            "astId": 69,
            "contract": "contracts/loanAndSalaryAdvance/LoanAndSalaryAdvance.sol:LoanAndSalaryAdvance",
            "label": "amortizationAmt",
            "offset": 0,
            "slot": "1",
            "type": "t_uint256"
          },
          {
            "astId": 72,
            "contract": "contracts/loanAndSalaryAdvance/LoanAndSalaryAdvance.sol:LoanAndSalaryAdvance",
            "label": "status",
            "offset": 0,
            "slot": "2",
            "type": "t_enum(LoanStatus)42"
          }
        ],
        "numberOfBytes": "96"
      },
      "t_struct(EmployeePayload)65_storage": {
        "encoding": "inplace",
        "label": "struct ILoanAndSalaryAdvance.EmployeePayload",
        "members": [
          {
            "astId": 44,
            "contract": "contracts/loanAndSalaryAdvance/LoanAndSalaryAdvance.sol:LoanAndSalaryAdvance",
            "label": "identifier",
            "offset": 0,
            "slot": "0",
            "type": "t_address"
          },
          {
            "astId": 46,
            "contract": "contracts/loanAndSalaryAdvance/LoanAndSalaryAdvance.sol:LoanAndSalaryAdvance",
            "label": "employer",
            "offset": 0,
            "slot": "1",
            "type": "t_address"
          },
          {
            "astId": 48,
            "contract": "contracts/loanAndSalaryAdvance/LoanAndSalaryAdvance.sol:LoanAndSalaryAdvance",
            "label": "workId",
            "offset": 0,
            "slot": "2",
            "type": "t_uint256"
          },
          {
            "astId": 50,
            "contract": "contracts/loanAndSalaryAdvance/LoanAndSalaryAdvance.sol:LoanAndSalaryAdvance",
            "label": "active",
            "offset": 0,
            "slot": "3",
            "type": "t_bool"
          },
          {
            "astId": 52,
            "contract": "contracts/loanAndSalaryAdvance/LoanAndSalaryAdvance.sol:LoanAndSalaryAdvance",
            "label": "saveForMe",
            "offset": 1,
            "slot": "3",
            "type": "t_bool"
          },
          {
            "astId": 54,
            "contract": "contracts/loanAndSalaryAdvance/LoanAndSalaryAdvance.sol:LoanAndSalaryAdvance",
            "label": "pay",
            "offset": 0,
            "slot": "4",
            "type": "t_uint256"
          },
          {
            "astId": 56,
            "contract": "contracts/loanAndSalaryAdvance/LoanAndSalaryAdvance.sol:LoanAndSalaryAdvance",
            "label": "saveForMeRate",
            "offset": 0,
            "slot": "5",
            "type": "t_uint8"
          },
          {
            "astId": 58,
            "contract": "contracts/loanAndSalaryAdvance/LoanAndSalaryAdvance.sol:LoanAndSalaryAdvance",
            "label": "amortizationRate",
            "offset": 1,
            "slot": "5",
            "type": "t_uint8"
          },
          {
            "astId": 61,
            "contract": "contracts/loanAndSalaryAdvance/LoanAndSalaryAdvance.sol:LoanAndSalaryAdvance",
            "label": "advanceReq",
            "offset": 0,
            "slot": "6",
            "type": "t_struct(AdvanceRequest)73_storage"
          },
          {
            "astId": 64,
            "contract": "contracts/loanAndSalaryAdvance/LoanAndSalaryAdvance.sol:LoanAndSalaryAdvance",
            "label": "loanReq",
            "offset": 0,
            "slot": "9",
            "type": "t_struct(LoanRequest)83_storage"
          }
        ],
        "numberOfBytes": "416"
      },
      "t_struct(LoanRequest)83_storage": {
        "encoding": "inplace",
        "label": "struct ILoanAndSalaryAdvance.LoanRequest",
        "members": [
          {
            "astId": 75,
            "contract": "contracts/loanAndSalaryAdvance/LoanAndSalaryAdvance.sol:LoanAndSalaryAdvance",
            "label": "amount",
            "offset": 0,
            "slot": "0",
            "type": "t_uint256"
          },
          {
            "astId": 77,
            "contract": "contracts/loanAndSalaryAdvance/LoanAndSalaryAdvance.sol:LoanAndSalaryAdvance",
            "label": "interest",
            "offset": 0,
            "slot": "1",
            "type": "t_uint256"
          },
          {
            "astId": 79,
            "contract": "contracts/loanAndSalaryAdvance/LoanAndSalaryAdvance.sol:LoanAndSalaryAdvance",
            "label": "amortizationAmt",
            "offset": 0,
            "slot": "2",
            "type": "t_uint256"
          },
          {
            "astId": 82,
            "contract": "contracts/loanAndSalaryAdvance/LoanAndSalaryAdvance.sol:LoanAndSalaryAdvance",
            "label": "status",
            "offset": 0,
            "slot": "3",
            "type": "t_enum(LoanStatus)42"
          }
        ],
        "numberOfBytes": "128"
      },
      "t_struct(PendingPayment)94_storage": {
        "encoding": "inplace",
        "label": "struct ILoanAndSalaryAdvance.PendingPayment",
        "members": [
          {
            "astId": 86,
            "contract": "contracts/loanAndSalaryAdvance/LoanAndSalaryAdvance.sol:LoanAndSalaryAdvance",
            "label": "payload",
            "offset": 0,
            "slot": "0",
            "type": "t_struct(EmployeePayload)65_storage"
          },
          {
            "astId": 89,
            "contract": "contracts/loanAndSalaryAdvance/LoanAndSalaryAdvance.sol:LoanAndSalaryAdvance",
            "label": "txType",
            "offset": 0,
            "slot": "13",
            "type": "t_enum(TxType)37"
          },
          {
            "astId": 91,
            "contract": "contracts/loanAndSalaryAdvance/LoanAndSalaryAdvance.sol:LoanAndSalaryAdvance",
            "label": "snapshotBal",
            "offset": 0,
            "slot": "14",
            "type": "t_uint256"
          },
          {
            "astId": 93,
            "contract": "contracts/loanAndSalaryAdvance/LoanAndSalaryAdvance.sol:LoanAndSalaryAdvance",
            "label": "callTime",
            "offset": 0,
            "slot": "15",
            "type": "t_uint64"
          }
        ],
        "numberOfBytes": "512"
      },
      "t_uint256": {
        "encoding": "inplace",
        "label": "uint256",
        "numberOfBytes": "32"
      },
      "t_uint64": {
        "encoding": "inplace",
        "label": "uint64",
        "numberOfBytes": "8"
      },
      "t_uint8": {
        "encoding": "inplace",
        "label": "uint8",
        "numberOfBytes": "1"
      }
    }
  }
}