{
  "address": "0xED894c860c17E5f4f96E3715107964b5f14AbC56",
  "abi": [
    {
      "inputs": [
        {
          "internalType": "address",
          "name": "_cUSD",
          "type": "address"
        }
      ],
      "stateMutability": "nonpayable",
      "type": "constructor"
    },
    {
      "inputs": [],
      "name": "TransferFromFailed",
      "type": "error"
    },
    {
      "inputs": [],
      "name": "ACCEPTED_HASH",
      "outputs": [
        {
          "internalType": "bytes32",
          "name": "",
          "type": "bytes32"
        }
      ],
      "stateMutability": "view",
      "type": "function"
    },
    {
      "inputs": [],
      "name": "ADVANCE_HASH",
      "outputs": [
        {
          "internalType": "bytes32",
          "name": "",
          "type": "bytes32"
        }
      ],
      "stateMutability": "view",
      "type": "function"
    },
    {
      "inputs": [],
      "name": "LOAN_HASH",
      "outputs": [
        {
          "internalType": "bytes32",
          "name": "",
          "type": "bytes32"
        }
      ],
      "stateMutability": "view",
      "type": "function"
    },
    {
      "inputs": [],
      "name": "REJECTED_HASH",
      "outputs": [
        {
          "internalType": "bytes32",
          "name": "",
          "type": "bytes32"
        }
      ],
      "stateMutability": "view",
      "type": "function"
    },
    {
      "inputs": [
        {
          "internalType": "address",
          "name": "employerAddr",
          "type": "address"
        },
        {
          "internalType": "uint256",
          "name": "employeeId",
          "type": "uint256"
        },
        {
          "internalType": "string",
          "name": "acceptOrRejectStr",
          "type": "string"
        }
      ],
      "name": "acceptOrRejectLoanApproval",
      "outputs": [
        {
          "internalType": "bool",
          "name": "",
          "type": "bool"
        }
      ],
      "stateMutability": "nonpayable",
      "type": "function"
    },
    {
      "inputs": [
        {
          "internalType": "address[]",
          "name": "addresses",
          "type": "address[]"
        },
        {
          "internalType": "uint256[]",
          "name": "payments",
          "type": "uint256[]"
        },
        {
          "internalType": "uint8",
          "name": "saveForMeRate",
          "type": "uint8"
        },
        {
          "internalType": "uint8",
          "name": "amortizationRate",
          "type": "uint8"
        }
      ],
      "name": "addEmployee",
      "outputs": [
        {
          "internalType": "bool",
          "name": "done",
          "type": "bool"
        }
      ],
      "stateMutability": "nonpayable",
      "type": "function"
    },
    {
      "inputs": [
        {
          "internalType": "uint256",
          "name": "employeeId",
          "type": "uint256"
        },
        {
          "internalType": "uint8",
          "name": "interestRate",
          "type": "uint8"
        },
        {
          "internalType": "uint8",
          "name": "amortizationRate",
          "type": "uint8"
        },
        {
          "internalType": "string",
          "name": "loanOrAdvanceStr",
          "type": "string"
        }
      ],
      "name": "approveLoanOrAdvanceRequest",
      "outputs": [
        {
          "internalType": "bool",
          "name": "",
          "type": "bool"
        }
      ],
      "stateMutability": "nonpayable",
      "type": "function"
    },
    {
      "inputs": [],
      "name": "cUSD",
      "outputs": [
        {
          "internalType": "address",
          "name": "",
          "type": "address"
        }
      ],
      "stateMutability": "view",
      "type": "function"
    },
    {
      "inputs": [
        {
          "internalType": "uint256",
          "name": "employeeId",
          "type": "uint256"
        },
        {
          "internalType": "bool",
          "name": "value",
          "type": "bool"
        }
      ],
      "name": "disableOrEnableEmployee",
      "outputs": [
        {
          "internalType": "bool",
          "name": "",
          "type": "bool"
        }
      ],
      "stateMutability": "nonpayable",
      "type": "function"
    },
    {
      "inputs": [
        {
          "internalType": "address",
          "name": "",
          "type": "address"
        },
        {
          "internalType": "uint256",
          "name": "",
          "type": "uint256"
        }
      ],
      "name": "employees",
      "outputs": [
        {
          "internalType": "address",
          "name": "identifier",
          "type": "address"
        },
        {
          "internalType": "uint256",
          "name": "workId",
          "type": "uint256"
        },
        {
          "internalType": "bool",
          "name": "active",
          "type": "bool"
        },
        {
          "internalType": "bool",
          "name": "saveForMe",
          "type": "bool"
        },
        {
          "internalType": "uint256",
          "name": "pay",
          "type": "uint256"
        },
        {
          "internalType": "uint8",
          "name": "saveForMeRate",
          "type": "uint8"
        },
        {
          "internalType": "uint8",
          "name": "amortizationRate",
          "type": "uint8"
        },
        {
          "components": [
            {
              "internalType": "uint256",
              "name": "amount",
              "type": "uint256"
            },
            {
              "internalType": "uint256",
              "name": "amortizationAmt",
              "type": "uint256"
            },
            {
              "internalType": "enum ILoanAndSalaryAdvance.AdvanceRequestStatus",
              "name": "status",
              "type": "uint8"
            }
          ],
          "internalType": "struct ILoanAndSalaryAdvance.AdvanceRequest",
          "name": "advanceReq",
          "type": "tuple"
        },
        {
          "components": [
            {
              "internalType": "uint256",
              "name": "amount",
              "type": "uint256"
            },
            {
              "internalType": "uint256",
              "name": "interest",
              "type": "uint256"
            },
            {
              "internalType": "uint256",
              "name": "amortizationAmt",
              "type": "uint256"
            },
            {
              "internalType": "enum ILoanAndSalaryAdvance.LoanRequestStatus",
              "name": "status",
              "type": "uint8"
            }
          ],
          "internalType": "struct ILoanAndSalaryAdvance.LoanRequest",
          "name": "loanReq",
          "type": "tuple"
        }
      ],
      "stateMutability": "view",
      "type": "function"
    },
    {
      "inputs": [
        {
          "internalType": "address",
          "name": "employerAddr",
          "type": "address"
        },
        {
          "internalType": "uint256",
          "name": "employeeId",
          "type": "uint256"
        },
        {
          "internalType": "uint256",
          "name": "amount",
          "type": "uint256"
        },
        {
          "internalType": "string",
          "name": "loanOrAdvanceStr",
          "type": "string"
        }
      ],
      "name": "requestAdvanceOrLoan",
      "outputs": [
        {
          "internalType": "bool",
          "name": "",
          "type": "bool"
        }
      ],
      "stateMutability": "nonpayable",
      "type": "function"
    },
    {
      "inputs": [
        {
          "internalType": "address",
          "name": "employerAddr",
          "type": "address"
        },
        {
          "internalType": "uint256",
          "name": "employeeId",
          "type": "uint256"
        },
        {
          "internalType": "bool",
          "name": "value",
          "type": "bool"
        }
      ],
      "name": "save4Me",
      "outputs": [
        {
          "internalType": "bool",
          "name": "",
          "type": "bool"
        }
      ],
      "stateMutability": "nonpayable",
      "type": "function"
    },
    {
      "inputs": [
        {
          "internalType": "uint256",
          "name": "employeeId",
          "type": "uint256"
        },
        {
          "internalType": "bool",
          "name": "acceptSaveForMe",
          "type": "bool"
        },
        {
          "internalType": "uint256",
          "name": "start",
          "type": "uint256"
        },
        {
          "internalType": "uint256",
          "name": "stop",
          "type": "uint256"
        }
      ],
      "name": "sendPayment",
      "outputs": [
        {
          "internalType": "bool",
          "name": "",
          "type": "bool"
        }
      ],
      "stateMutability": "nonpayable",
      "type": "function"
    },
    {
      "stateMutability": "payable",
      "type": "receive"
    }
  ],
  "transactionHash": "0x328dfe518c28def7f975ee94fcc3ac1df948600f00dce2fcdab2681b0a536b8d",
  "args": [
    "0x874069Fa1Eb16D44d622F2e0Ca25eeA172369bC1"
  ],
  "numDeployments": 1,
  "solcInputHash": "a78c9f8acdf49c62178c90b5966fa9a3",
  "bytecode": "0x6101206040523480156200001257600080fd5b5060405162002d9d38038062002d9d8339810160408190526200003591620001bc565b600160a060020a0381166200004957600080fd5b600160a060020a03811660805260408051808201909152600481527f4c4f414e0000000000000000000000000000000000000000000000000000000060208201526200009e906401000000006200018a810204565b60a05260408051808201909152600781527f414456414e4345000000000000000000000000000000000000000000000000006020820152620000e9906401000000006200018a810204565b60c05260408051808201909152600881527f4143434550544544000000000000000000000000000000000000000000000000602082015262000134906401000000006200018a810204565b60e05260408051808201909152600881527f52454a454354454400000000000000000000000000000000000000000000000060208201526200017f906401000000006200018a810204565b61010052506200023e565b6000816040516020016200019f9190620001ee565b604051602081830303815290604052805190602001209050919050565b600060208284031215620001cf57600080fd5b8151600160a060020a0381168114620001e757600080fd5b9392505050565b600060208083528351808285015260005b818110156200021d57858101830151858201604001528201620001ff565b506000604082860101526040601f19601f8301168501019250505092915050565b60805160a05160c05160e05161010051612ad4620002c96000396000818161027b01526116db01526000818161032301526116380152600081816101d90152818161052f0152611b0c0152600081816102ef015281816106990152611c5501526000818161016d015281816111b80152818161155b015281816119ff015261234b0152612ad46000f3fe6080604052600436106100e2576000357c0100000000000000000000000000000000000000000000000000000000900480637462eb071161009c57806393e5cb4e1161007657806393e5cb4e1461029d578063b2bf0bab146102bd578063c5a5955e146102dd578063ddfa43241461031157600080fd5b80637462eb071461022957806381a0941614610249578063883281c41461026957600080fd5b80624ead36146100f15780630fd7d154146101265780631fccf6721461015b5780635ed11694146101a75780635fdc32d1146101c757806371a0a6fb1461020957600080fd5b366100ec57600080fd5b600080fd5b3480156100fd57600080fd5b5061011161010c3660046124c9565b610345565b60405190151581526020015b60405180910390f35b34801561013257600080fd5b5061014661014136600461252a565b61084a565b60405161011d999897969594939291906125a5565b34801561016757600080fd5b5061018f7f000000000000000000000000000000000000000000000000000000000000000081565b604051600160a060020a03909116815260200161011d565b3480156101b357600080fd5b506101116101c23660046126ce565b610972565b3480156101d357600080fd5b506101fb7f000000000000000000000000000000000000000000000000000000000000000081565b60405190815260200161011d565b34801561021557600080fd5b506101116102243660046127bd565b610cd5565b34801561023557600080fd5b506101116102443660046127fd565b610f38565b34801561025557600080fd5b5061011161026436600461283a565b61137a565b34801561027557600080fd5b506101fb7f000000000000000000000000000000000000000000000000000000000000000081565b3480156102a957600080fd5b506101116102b8366004612891565b6117d3565b3480156102c957600080fd5b506101116102d83660046128e1565b611ddc565b3480156102e957600080fd5b506101fb7f000000000000000000000000000000000000000000000000000000000000000081565b34801561031d57600080fd5b506101fb7f000000000000000000000000000000000000000000000000000000000000000081565b600160a060020a03841660009081526020819052604081205484908690821061038c5760405160e560020a62461bcd02815260040161038390612911565b60405180910390fd5b600160a060020a03871660009081526020819052604081208054889081106103b6576103b6612948565b60009182526020918290206040805161012081018252600c9093029091018054600160a060020a03168352600181015483850152600281015460ff80821615158585015261010091829004811615156060808701919091526003808501546080880152600485015480841660a089015293909304821660c087015284519081018552600584018054825260068501549782019790975260078401549596939560e088019591949391850192169081111561047257610472612554565b600381111561048357610483612554565b815250508152602001600882016040518060800160405290816000820154815260200160018201548152602001600282015481526020016003820160009054906101000a900460ff1660048111156104dd576104dd612554565b60048111156104ee576104ee612554565b90525090525060408051808201909152601881527f596f7520686176652070656e64696e6720726571756573740000000000000000602082015290915060007f000000000000000000000000000000000000000000000000000000000000000061055788612082565b036106975760008360e0015160400151600381111561057857610578612554565b148061059d575060038360e0015160400151600381111561059b5761059b612554565b145b905082608001518811156105f65760405160e560020a62461bcd02815260206004820152601c60248201527f416476616e63652063616e6e6f74206578636565642053616c617279000000006044820152606401610383565b604080516060810182528981526000602082015290810160019052600160a060020a038b16600090815260208190526040902080548b90811061063b5761063b612948565b90600052602060002090600c0201600501600082015181600001556020820151816001015560408201518160020160006101000a81548160ff0219169083600381111561068a5761068a612554565b0217905550905050610817565b7f00000000000000000000000000000000000000000000000000000000000000006106c188612082565b036107fa5760008361010001516060015160048111156106e3576106e3612554565b14806107095750600483610100015160600151600481111561070757610707612554565b145b90506040518060400160405280601d81526020017f596f7520686176652070656e64696e67206c6f616e20726571756573740000008152509150604051806080016040528089815260200160008152602001600081526020016001600481111561077557610775612554565b9052600160a060020a038b16600090815260208190526040902080548b9081106107a1576107a1612948565b90600052602060002090600c020160080160008201518160000155602082015181600101556040820151816002015560608201518160030160006101000a81548160ff0219169083600481111561068a5761068a612554565b8660405160e560020a62461bcd0281526004016103839190612961565b81816108395760405160e560020a62461bcd0281526004016103839190612961565b5060019a9950505050505050505050565b6000602052816000526040600020818154811061086657600080fd5b6000918252602091829020600c90910201805460018201546002830154600380850154600486015460408051606081018252600589018054825260068a01549a82019a909a526007890154600160a060020a039098169b5095995060ff8086169961010096879004821699949884831698979094048216969495909392850192909116908111156108f9576108f9612554565b600381111561090a5761090a612554565b90525060408051608081018252600884018054825260098501546020830152600a85015492820192909252600b840154929392909190606083019060ff16600481111561095957610959612554565b600481111561096a5761096a612554565b905250905089565b83518351600091339181146109cc5760405160e560020a62461bcd02815260206004820152601d60248201527f41646472657373657320746f207061796d656e74206d69736d617463680000006044820152606401610383565b60005b818160ff161015610cca576000888260ff16815181106109f1576109f1612948565b602002602001015190506000600160a060020a031681600160a060020a031614610cb757600160a060020a0380851660009081526001602090815260408083209385168352929052205460ff16610cb757600160a060020a038085166000818152600160208181526040808420958716808552958252808420805460ff19168417905593835282815283832084516101208101865295865260ff88169186018290529385019190915260608401919091528a5191929160808301918c918110610abc57610abc612948565b602002602001015181526020018960ff1681526020018860ff1681526020016040518060600160405280600081526020016000815260200160006003811115610b0757610b07612554565b6003811115610b1857610b18612554565b8152508152602001604051806080016040528060008152602001600081526020016000815260200160006004811115610b5357610b53612554565b6004811115610b6457610b64612554565b9052905281546001808201845560009384526020938490208351600c90930201805473ffffffffffffffffffffffffffffffffffffffff1916600160a060020a039093169290921782558284015182820155604080840151600284018054606087015161ffff1991821693151561ff00191693909317610100931515840217909155608086015160038087019190915560a087015160048701805460c08a015160ff93841691909516179190931690930292909217905560e085015180516005860190815596810151600686015591820151600785018054969795969395949193909260ff1990911691908490811115610c6057610c60612554565b02179055505050610100820151805160088301908155602082015160098401556040820151600a8401556060820151600b8401805460ff19166001836004811115610cad57610cad612554565b0217905550505050505b5080610cc2816129c8565b9150506109cf565b505050949350505050565b600160a060020a038316600090815260208190526040812054839085908210610d135760405160e560020a62461bcd02815260040161038390612911565b336000818152602081905260408120805488908110610d3457610d34612948565b60009182526020918290206040805161012081018252600c9093029091018054600160a060020a03168352600181015483850152600281015460ff80821615158585015261010091829004811615156060808701919091526003808501546080880152600485015480841660a089015293909304821660c087015284519081018552600584018054825260068501549782019790975260078401549596939560e0880195919493918501921690811115610df057610df0612554565b6003811115610e0157610e01612554565b815250508152602001600882016040518060800160405290816000820154815260200160018201548152602001600282015481526020016003820160009054906101000a900460ff166004811115610e5b57610e5b612554565b6004811115610e6c57610e6c612554565b9052509052508051909150600160a060020a03838116911614610ed45760405160e560020a62461bcd02815260206004820152601160248201527f556e417574686f72697a65642063616c6c0000000000000000000000000000006044820152606401610383565b600160a060020a0382166000908152602081905260409020805487919089908110610f0157610f01612948565b90600052602060002090600c020160020160016101000a81548160ff02191690831515021790555060019450505050509392505050565b33600081815260208190526040812054909186918210610f6d5760405160e560020a62461bcd02815260040161038390612911565b3360008181526020818152604080832080548251818502810185019093528083529192909190849084015b828210156110ed5760008481526020908190206040805161012081018252600c86029092018054600160a060020a03168352600181015483850152600281015460ff80821615158585015261010091829004811615156060808701919091526003808501546080880152600485015480841660a089015293909304821660c087015284519081018552600584018054825260068501549782019790975260078401549596939560e088019591949391850192169081111561105b5761105b612554565b600381111561106c5761106c612554565b815250508152602001600882016040518060800160405290816000820154815260200160018201548152602001600282015481526020016003820160009054906101000a900460ff1660048111156110c6576110c6612554565b60048111156110d7576110d7612554565b9052509052508152600190910190602001610f98565b5050505090508587108015611103575080518611155b6111525760405160e560020a62461bcd02815260206004820152601660248201527f496e76616c69642072616e67652073656c6563746564000000000000000000006044820152606401610383565b6000808811611161578761116c565b61116c6001896129e7565b90505b8681101561136a576040517fdd62ed3e000000000000000000000000000000000000000000000000000000008152600160a060020a0384811660048301523060248301526000917f00000000000000000000000000000000000000000000000000000000000000009091169063dd62ed3e90604401602060405180830381865afa158015611201573d6000803e3d6000fd5b505050506040513d601f19601f820116820180604052508101906112259190612a00565b9050600083838151811061123b5761123b612948565b6020026020010151905060006112528685846120b2565b9050808310156112a75760405160e560020a62461bcd02815260206004820152601260248201527f4e6f7420656e6f7567682062616c616e636500000000000000000000000000006044820152606401610383565b81606001516112bf576112bf86836000015183612304565b816060015180156112cd57508b5b156113545760648260a0015160ff1683608001516112eb9190612a19565b6112f59190612a30565b82608001516113049190612a55565b600160a060020a038716600090815260208190526040902080548f90811061132e5761132e612948565b90600052602060002090600c0201600301600082825461134e9190612a55565b90915550505b505050808061136290612a68565b91505061116f565b5060019998505050505050505050565b600160a060020a0383166000908152602081905260408120548390859082106113b85760405160e560020a62461bcd02815260040161038390612911565b3360008181526020819052604081208054889081106113d9576113d9612948565b60009182526020918290206040805161012081018252600c9093029091018054600160a060020a03168352600181015483850152600281015460ff80821615158585015261010091829004811615156060808701919091526003808501546080880152600485015480841660a089015293909304821660c087015284519081018552600584018054825260068501549782019790975260078401549596939560e088019591949391850192169081111561149557611495612554565b60038111156114a6576114a6612554565b815250508152602001600882016040518060800160405290816000820154815260200160018201548152602001600282015481526020016003820160009054906101000a900460ff16600481111561150057611500612554565b600481111561151157611511612554565b9052509052506040517fdd62ed3e000000000000000000000000000000000000000000000000000000008152600160a060020a038a811660048301523060248301529192506000917f0000000000000000000000000000000000000000000000000000000000000000169063dd62ed3e90604401602060405180830381865afa1580156115a2573d6000803e3d6000fd5b505050506040513d601f19601f820116820180604052508101906115c69190612a00565b90508160000151600160a060020a031683600160a060020a0316146116305760405160e560020a62461bcd02815260206004820152601160248201527f556e417574686f72697a65642063616c6c0000000000000000000000000000006044820152606401610383565b8015611768577f000000000000000000000000000000000000000000000000000000000000000061166088612082565b036116d957600160a060020a03831660009081526020819052604090208054600391908a90811061169357611693612948565b60009182526020909120600b600c9092020101805460ff191660018360048111156116c0576116c0612554565b02179055506116d489836000015183612304565b6117c4565b7f000000000000000000000000000000000000000000000000000000000000000061170388612082565b036107fa57600160a060020a038316600090815260208190526040902080548990811061173257611732612948565b6000918252602082206008600c9092020190810182905560098101829055600a810191909155600b01805460ff191690556117c4565b600160a060020a038316600090815260208190526040902080548990811061179257611792612948565b6000918252602082206008600c9092020190810182905560098101829055600a810191909155600b01805460ff191690555b50600198975050505050505050565b336000818152602081905260408120549091869182106118085760405160e560020a62461bcd02815260040161038390612911565b33600081815260208190526040812080548a90811061182957611829612948565b60009182526020918290206040805161012081018252600c9093029091018054600160a060020a03168352600181015483850152600281015460ff80821615158585015261010091829004811615156060808701919091526003808501546080880152600485015480841660a089015293909304821660c087015284519081018552600584018054825260068501549782019790975260078401549596939560e08801959194939185019216908111156118e5576118e5612554565b60038111156118f6576118f6612554565b815250508152602001600882016040518060800160405290816000820154815260200160018201548152602001600282015481526020016003820160009054906101000a900460ff16600481111561195057611950612554565b600481111561196157611961612554565b90525090525060408101519091506119be5760405160e560020a62461bcd02815260206004820152600860248201527f44697361626c65640000000000000000000000000000000000000000000000006044820152606401610383565b6040517fdd62ed3e000000000000000000000000000000000000000000000000000000008152600160a060020a0383811660048301523060248301526000917f00000000000000000000000000000000000000000000000000000000000000009091169063dd62ed3e90604401602060405180830381865afa158015611a48573d6000803e3d6000fd5b505050506040513d601f19601f82011682018060405250810190611a6c9190612a00565b905060006064611a7f60ff8c1684612a19565b611a899190612a30565b90506000606460ff8b16611a9d8486612a55565b611aa79190612a19565b611ab19190612a30565b90508360800151811115611b0a5760405160e560020a62461bcd02815260206004820152601860248201527f416d6f7274697a6174696f6e20657863656564732070617900000000000000006044820152606401610383565b7f0000000000000000000000000000000000000000000000000000000000000000611b348a612082565b03611c535760018460e00151604001516003811115611b5557611b55612554565b14611ba55760405160e560020a62461bcd02815260206004820152600f60248201527f496e76616c6964207265717565737400000000000000000000000000000000006044820152606401610383565b604080516060810182528481526020810183905290810160029052600160a060020a038616600090815260208190526040902080548e908110611bea57611bea612948565b90600052602060002090600c0201600501600082015181600001556020820151816001015560408201518160020160006101000a81548160ff02191690836003811115611c3957611c39612554565b0217905550508451611c4e9150869085612304565b611dca565b7f0000000000000000000000000000000000000000000000000000000000000000611c7d8a612082565b03611dad576001846101000151606001516004811115611c9f57611c9f612554565b14611cef5760405160e560020a62461bcd02815260206004820152600f60248201527f496e76616c6964207265717565737400000000000000000000000000000000006044820152606401610383565b60405180608001604052808385611d069190612a55565b8152602081018490526040810183905260600160029052600160a060020a038616600090815260208190526040902080548e908110611d4757611d47612948565b90600052602060002090600c020160080160008201518160000155602082015181600101556040820151816002015560608201518160030160006101000a81548160ff02191690836004811115611da057611da0612554565b0217905550905050611dca565b8860405160e560020a62461bcd0281526004016103839190612961565b5060019b9a5050505050505050505050565b33600081815260208190526040812054909184918210611e115760405160e560020a62461bcd02815260040161038390612911565b336000818152602081905260408120805488908110611e3257611e32612948565b60009182526020918290206040805161012081018252600c9093029091018054600160a060020a03168352600181015483850152600281015460ff80821615158585015261010091829004811615156060808701919091526003808501546080880152600485015480841660a089015293909304821660c087015284519081018552600584018054825260068501549782019790975260078401549596939560e0880195919493918501921690811115611eee57611eee612554565b6003811115611eff57611eff612554565b815250508152602001600882016040518060800160405290816000820154815260200160018201548152602001600282015481526020016003820160009054906101000a900460ff166004811115611f5957611f59612554565b6004811115611f6a57611f6a612554565b90525090525090508515611fd257806040015115611fcd5760405160e560020a62461bcd02815260206004820152600760248201527f456e61626c6564000000000000000000000000000000000000000000000000006044820152606401610383565b612026565b80604001516120265760405160e560020a62461bcd02815260206004820152600860248201527f44697361626c65640000000000000000000000000000000000000000000000006044820152606401610383565b600160a060020a038216600090815260208190526040902080548791908990811061205357612053612948565b60009182526020909120600c90910201600201805460ff19169115159190911790555060019695505050505050565b6000816040516020016120959190612961565b604051602081830303815290604052805190602001209050919050565b61010081015151600090156121db5761010082015180516040909101518110156120fb576120e081806129e7565b9050808184608001516120f391906129e7565b92508261212f565b6101008301516040015161210f90826129e7565b90508083610100015160400151846080015161212b91906129e7565b9250825b5050600160a060020a038516600090815260208190526040902080548291908690811061215e5761215e612948565b600091825260209091206008600c90920201015580156121d957600160a060020a0385166000908152602081905260409020805460049190869081106121a6576121a6612948565b60009182526020909120600b600c9092020101805460ff191660018360048111156121d3576121d3612554565b02179055505b505b60e082015151156122fd5760e0820151805160209091015181101561221f5761220481806129e7565b90508081846080015161221791906129e7565b925082612251565b60e08301516020015161223290826129e7565b9050808360e0015160200151846080015161224d91906129e7565b9250825b5050600160a060020a038516600090815260208190526040902080548291908690811061228057612280612948565b600091825260209091206005600c90920201015580156122fb57600160a060020a0385166000908152602081905260409020805460039190869081106122c8576122c8612948565b600091825260209091206007600c9092020101805460ff191660018360038111156122f5576122f5612554565b02179055505b505b9392505050565b6040517f23b872dd000000000000000000000000000000000000000000000000000000008152600160a060020a0384811660048301528381166024830152604482018390527f000000000000000000000000000000000000000000000000000000000000000016906323b872dd906064016020604051808303816000875af1158015612394573d6000803e3d6000fd5b505050506040513d601f19601f820116820180604052508101906123b89190612a81565b6123ee576040517f7939f42400000000000000000000000000000000000000000000000000000000815260040160405180910390fd5b505050565b8035600160a060020a038116811461240a57600080fd5b919050565b60e060020a634e487b7102600052604160045260246000fd5b604051601f8201601f1916810167ffffffffffffffff811182821017156124515761245161240f565b604052919050565b600082601f83011261246a57600080fd5b813567ffffffffffffffff8111156124845761248461240f565b612497601f8201601f1916602001612428565b8181528460208386010111156124ac57600080fd5b816020850160208301376000918101602001919091529392505050565b600080600080608085870312156124df57600080fd5b6124e8856123f3565b93506020850135925060408501359150606085013567ffffffffffffffff81111561251257600080fd5b61251e87828801612459565b91505092959194509250565b6000806040838503121561253d57600080fd5b612546836123f3565b946020939093013593505050565b60e060020a634e487b7102600052602160045260246000fd5b80518252602081015160208301526040810151604083015260608101516005811061259a5761259a612554565b806060840152505050565b60006101c082019050600160a060020a038b1682528960208301528815156040830152871515606083015286608083015260ff861660a083015260ff851660c0830152835160e0830152602084015161010083015260408401516004811061260f5761260f612554565b61012083015261262361014083018461256d565b9a9950505050505050505050565b600067ffffffffffffffff82111561264b5761264b61240f565b5060209081020190565b600082601f83011261266657600080fd5b8135602061267b61267683612631565b612428565b8281529181028401810191818101908684111561269757600080fd5b8286015b848110156126b2578035835291830191830161269b565b509695505050505050565b803560ff8116811461240a57600080fd5b600080600080608085870312156126e457600080fd5b843567ffffffffffffffff808211156126fc57600080fd5b818701915087601f83011261271057600080fd5b8135602061272061267683612631565b8281529181028401810191818101908b84111561273c57600080fd5b948201945b8386101561276157612752866123f3565b82529482019490820190612741565b9850508801359250508082111561277757600080fd5b5061278487828801612655565b935050612793604086016126bd565b91506127a1606086016126bd565b905092959194509250565b80151581146127ba57600080fd5b50565b6000806000606084860312156127d257600080fd5b6127db846123f3565b92506020840135915060408401356127f2816127ac565b809150509250925092565b6000806000806080858703121561281357600080fd5b843593506020850135612825816127ac565b93969395505050506040820135916060013590565b60008060006060848603121561284f57600080fd5b612858846123f3565b925060208401359150604084013567ffffffffffffffff81111561287b57600080fd5b61288786828701612459565b9150509250925092565b600080600080608085870312156128a757600080fd5b843593506128b7602086016126bd565b92506128c5604086016126bd565b9150606085013567ffffffffffffffff81111561251257600080fd5b600080604083850312156128f457600080fd5b823591506020830135612906816127ac565b809150509250929050565b60208082526012908201527f496e76616c696420656d706c6f79656549640000000000000000000000000000604082015260600190565b60e060020a634e487b7102600052603260045260246000fd5b600060208083528351808285015260005b8181101561298e57858101830151858201604001528201612972565b506000604082860101526040601f19601f8301168501019250505092915050565b60e060020a634e487b7102600052601160045260246000fd5b600060ff821660ff81036129de576129de6129af565b60010192915050565b818103818111156129fa576129fa6129af565b92915050565b600060208284031215612a1257600080fd5b5051919050565b80820281158282048414176129fa576129fa6129af565b600082612a505760e060020a634e487b7102600052601260045260246000fd5b500490565b808201808211156129fa576129fa6129af565b600060018201612a7a57612a7a6129af565b5060010190565b600060208284031215612a9357600080fd5b81516122fd816127ac56fea264697066735822122014d5493427ae9fbf8cfc1bed2124efc06f47f7b68c8936776956448d222b5e3964736f6c63430008140033",
  "devdoc": {
    "kind": "dev",
    "methods": {
      "sendPayment(uint256,bool,uint256,uint256)": {
        "details": "Employers pay employees Employees addition are not accepted at this point.  Prior to this call, employer should use { disableOrEnableEmployee } to filter ones that should not be paid Note: pay() is atomic by context i.e transfer to all employees must pass simultaneously.      Employers should ensure enough allowance is given to cover the pays.  Note: Employers can select the range of empployees to pay. This is done using the { start } and { stop } flags.       These flags neither can exceed the number of employees in storage nor can start eceeds stop.",
        "params": {
          "acceptSaveForMe": ": Employer should specify if they're willing to save for employees by holding their pay in custody until otherwise canceled by the employee.                           This attracts interests compounded on the principal pay. ",
          "employeeId": ": Id assigned to employee at registration point. It corresponds to their position in the EmployeePayload array.",
          "start": ": The starting point precision to start payment.",
          "stop": ": Position or index where payments should stop  Note: Employer should give enough allowance correspond to cUSD balance to cover the expected payment range."
        }
      }
    },
    "version": 1
  },
  "userdoc": {
    "kind": "user",
    "methods": {},
    "version": 1
  },
  "storageLayout": {
    "storage": [
      {
        "astId": 221,
        "contract": "contracts/loanAndSalaryAdvance/LoanAndSalaryAdvance.sol:LoanAndSalaryAdvance",
        "label": "employees",
        "offset": 0,
        "slot": "0",
        "type": "t_mapping(t_address,t_array(t_struct(EmployeePayload)65_storage)dyn_storage)"
      },
      {
        "astId": 227,
        "contract": "contracts/loanAndSalaryAdvance/LoanAndSalaryAdvance.sol:LoanAndSalaryAdvance",
        "label": "isAdded",
        "offset": 0,
        "slot": "1",
        "type": "t_mapping(t_address,t_mapping(t_address,t_bool))"
      }
    ],
    "types": {
      "t_address": {
        "encoding": "inplace",
        "label": "address",
        "numberOfBytes": "20"
      },
      "t_array(t_struct(EmployeePayload)65_storage)dyn_storage": {
        "base": "t_struct(EmployeePayload)65_storage",
        "encoding": "dynamic_array",
        "label": "struct ILoanAndSalaryAdvance.EmployeePayload[]",
        "numberOfBytes": "32"
      },
      "t_bool": {
        "encoding": "inplace",
        "label": "bool",
        "numberOfBytes": "1"
      },
      "t_enum(AdvanceRequestStatus)38": {
        "encoding": "inplace",
        "label": "enum ILoanAndSalaryAdvance.AdvanceRequestStatus",
        "numberOfBytes": "1"
      },
      "t_enum(LoanRequestStatus)44": {
        "encoding": "inplace",
        "label": "enum ILoanAndSalaryAdvance.LoanRequestStatus",
        "numberOfBytes": "1"
      },
      "t_mapping(t_address,t_array(t_struct(EmployeePayload)65_storage)dyn_storage)": {
        "encoding": "mapping",
        "key": "t_address",
        "label": "mapping(address => struct ILoanAndSalaryAdvance.EmployeePayload[])",
        "numberOfBytes": "32",
        "value": "t_array(t_struct(EmployeePayload)65_storage)dyn_storage"
      },
      "t_mapping(t_address,t_bool)": {
        "encoding": "mapping",
        "key": "t_address",
        "label": "mapping(address => bool)",
        "numberOfBytes": "32",
        "value": "t_bool"
      },
      "t_mapping(t_address,t_mapping(t_address,t_bool))": {
        "encoding": "mapping",
        "key": "t_address",
        "label": "mapping(address => mapping(address => bool))",
        "numberOfBytes": "32",
        "value": "t_mapping(t_address,t_bool)"
      },
      "t_struct(AdvanceRequest)73_storage": {
        "encoding": "inplace",
        "label": "struct ILoanAndSalaryAdvance.AdvanceRequest",
        "members": [
          {
            "astId": 67,
            "contract": "contracts/loanAndSalaryAdvance/LoanAndSalaryAdvance.sol:LoanAndSalaryAdvance",
            "label": "amount",
            "offset": 0,
            "slot": "0",
            "type": "t_uint256"
          },
          {
            "astId": 69,
            "contract": "contracts/loanAndSalaryAdvance/LoanAndSalaryAdvance.sol:LoanAndSalaryAdvance",
            "label": "amortizationAmt",
            "offset": 0,
            "slot": "1",
            "type": "t_uint256"
          },
          {
            "astId": 72,
            "contract": "contracts/loanAndSalaryAdvance/LoanAndSalaryAdvance.sol:LoanAndSalaryAdvance",
            "label": "status",
            "offset": 0,
            "slot": "2",
            "type": "t_enum(AdvanceRequestStatus)38"
          }
        ],
        "numberOfBytes": "96"
      },
      "t_struct(EmployeePayload)65_storage": {
        "encoding": "inplace",
        "label": "struct ILoanAndSalaryAdvance.EmployeePayload",
        "members": [
          {
            "astId": 46,
            "contract": "contracts/loanAndSalaryAdvance/LoanAndSalaryAdvance.sol:LoanAndSalaryAdvance",
            "label": "identifier",
            "offset": 0,
            "slot": "0",
            "type": "t_address"
          },
          {
            "astId": 48,
            "contract": "contracts/loanAndSalaryAdvance/LoanAndSalaryAdvance.sol:LoanAndSalaryAdvance",
            "label": "workId",
            "offset": 0,
            "slot": "1",
            "type": "t_uint256"
          },
          {
            "astId": 50,
            "contract": "contracts/loanAndSalaryAdvance/LoanAndSalaryAdvance.sol:LoanAndSalaryAdvance",
            "label": "active",
            "offset": 0,
            "slot": "2",
            "type": "t_bool"
          },
          {
            "astId": 52,
            "contract": "contracts/loanAndSalaryAdvance/LoanAndSalaryAdvance.sol:LoanAndSalaryAdvance",
            "label": "saveForMe",
            "offset": 1,
            "slot": "2",
            "type": "t_bool"
          },
          {
            "astId": 54,
            "contract": "contracts/loanAndSalaryAdvance/LoanAndSalaryAdvance.sol:LoanAndSalaryAdvance",
            "label": "pay",
            "offset": 0,
            "slot": "3",
            "type": "t_uint256"
          },
          {
            "astId": 56,
            "contract": "contracts/loanAndSalaryAdvance/LoanAndSalaryAdvance.sol:LoanAndSalaryAdvance",
            "label": "saveForMeRate",
            "offset": 0,
            "slot": "4",
            "type": "t_uint8"
          },
          {
            "astId": 58,
            "contract": "contracts/loanAndSalaryAdvance/LoanAndSalaryAdvance.sol:LoanAndSalaryAdvance",
            "label": "amortizationRate",
            "offset": 1,
            "slot": "4",
            "type": "t_uint8"
          },
          {
            "astId": 61,
            "contract": "contracts/loanAndSalaryAdvance/LoanAndSalaryAdvance.sol:LoanAndSalaryAdvance",
            "label": "advanceReq",
            "offset": 0,
            "slot": "5",
            "type": "t_struct(AdvanceRequest)73_storage"
          },
          {
            "astId": 64,
            "contract": "contracts/loanAndSalaryAdvance/LoanAndSalaryAdvance.sol:LoanAndSalaryAdvance",
            "label": "loanReq",
            "offset": 0,
            "slot": "8",
            "type": "t_struct(LoanRequest)83_storage"
          }
        ],
        "numberOfBytes": "384"
      },
      "t_struct(LoanRequest)83_storage": {
        "encoding": "inplace",
        "label": "struct ILoanAndSalaryAdvance.LoanRequest",
        "members": [
          {
            "astId": 75,
            "contract": "contracts/loanAndSalaryAdvance/LoanAndSalaryAdvance.sol:LoanAndSalaryAdvance",
            "label": "amount",
            "offset": 0,
            "slot": "0",
            "type": "t_uint256"
          },
          {
            "astId": 77,
            "contract": "contracts/loanAndSalaryAdvance/LoanAndSalaryAdvance.sol:LoanAndSalaryAdvance",
            "label": "interest",
            "offset": 0,
            "slot": "1",
            "type": "t_uint256"
          },
          {
            "astId": 79,
            "contract": "contracts/loanAndSalaryAdvance/LoanAndSalaryAdvance.sol:LoanAndSalaryAdvance",
            "label": "amortizationAmt",
            "offset": 0,
            "slot": "2",
            "type": "t_uint256"
          },
          {
            "astId": 82,
            "contract": "contracts/loanAndSalaryAdvance/LoanAndSalaryAdvance.sol:LoanAndSalaryAdvance",
            "label": "status",
            "offset": 0,
            "slot": "3",
            "type": "t_enum(LoanRequestStatus)44"
          }
        ],
        "numberOfBytes": "128"
      },
      "t_uint256": {
        "encoding": "inplace",
        "label": "uint256",
        "numberOfBytes": "32"
      },
      "t_uint8": {
        "encoding": "inplace",
        "label": "uint8",
        "numberOfBytes": "1"
      }
    }
  }
}